:1000000029C04DC049C44BC04AC049C048C047C0C0
:1000100046C045C044C043C042C041C040C00000CB
:10002000000037000103000004000123456789AB8D
:10003000CDEFFEDCBA9876543210F0E1D2C3000066
:10004000000038000202020202020102040810202D
:10005000C404060711241FBECFE5D2E0DEBFCDBF2A
:1000600021E0AAE8B0E001C01D92A83CB207E1F788
:1000700010E0A0E6B0E0E6EBFFE002C005900D92D4
:10008000AA38B107D9F710E0C9E2D0E003C0219740
:10009000FE0172D7C832D107D1F7D5D480C7B0CF0F
:1000A000CF92DF92EF92FF920F931F93CF93DF9344
:1000B0006C01EB017B01E40EF51E10E000E0CE15B3
:1000C000DF0561F06991D601ED91FC910190F0811D
:1000D000E02DC6010995080F191FF1CFC801DF9166
:1000E000CF911F910F91FF90EF90DF90CF900895E7
:1000F00020919000309191002817390781F4909158
:100100008E0080918F00981751F0E0918E00F0E002
:10011000E657FF4F8081082E000C990B08958FEF52
:100120009FEF089520919000309191002817390792
:1001300039F48FB7F89410928F0010928E008FBF11
:100140000895EF92FF920F931F93CF93DF93DC01FB
:100150005C96ED90FC905D97E114F10479F481E0F8
:1001600090E013969C938E93129790E080E0DF913D
:10017000CF911F910F91FF90EF9008955196ED91BF
:10018000FC91529750968C915097982F90950FB75D
:100190005E962C915E97122F127021FD6095F89457
:1001A0002081112319F1282B2083E7012197F1F7F2
:1001B00028E0462F50E0308160FF1AC0382B308392
:1001C000E7012197F1F7BA0175956795215089F7F5
:1001D000112381F08081892380830FBF5C968D91EC
:1001E0009C910197F1F781E090E0C1CF2923DCCF0A
:1001F0003923E5CF9081892BEFCF682F89EA91E0F1
:10020000A0CF20919000309191002817390761F418
:1002100080918F0020918E0090E00496821B9109BE
:1002200064E070E059D6089590E080E00895209150
:1002300090003091910028173907B9F490918E0001
:1002400080918F00981789F0E0918E00F0E0E657DA
:10025000FF4F808120918E0030E02F5F3F4F237051
:10026000332720938E0090E008958FEF9FEF08953D
:100270002F923F924F925F926F927F928F929F92B6
:10028000AF92BF92CF92DF92EF92FF920F931F93A4
:10029000CF93DF93CDB7DEB7A9970FB6F894DEBF43
:1002A0000FBECDBFDC01AC5BBF4F2C91E3E0E2277A
:1002B000E80FF92FF11D64832F5F2C93203409F090
:1002C00016C1FC01EB5BFF4F408051806280738060
:1002D0004D865E866F86788A3496608071808280D3
:1002E0009380698A7A8A8B8A9C8A349680809180EE
:1002F000A280B3808D8A9E8AAF8AB88E3496A08001
:10030000B180C280D380A98EBA8ECB8EDC8E34961B
:10031000C080D180E280F380CD8EDE8EEF8EF8A299
:10032000C986DA86EB86FC862D853E854F85588901
:100330002D833E834F835887C988DA88EB88FC88F1
:10034000898C9A8CAB8CBC8C0D891E892F89388D39
:100350004EE0242E312C19A249A1443108F051C19C
:10036000B501A40140275127622773274C215D2145
:100370006E217F212A013B01482459246A247B24D1
:10038000B301A201475656486D47754A4EA35FA375
:1003900068A779A7E9A1EF70F0E03196EE0FFF1F93
:1003A000EE0FFF1FE80FF91F4D805E806F8078848D
:1003B0005BE176946794579447945A95D1F74D81B1
:1003C0005E816F817885A5E0440F551F661F771FFA
:1003D000AA95D1F74429552966297729408051806B
:1003E00062807380440D551D661D771D2A013B01F7
:1003F0004EA15FA168A579A5440E551E661E771E05
:1004000049855A856B857C85440D551D661D771D74
:1004100049835A836B837C8326013701B2E076944B
:10042000679457944794BA95D1F7B701A601EEE1C6
:10043000440F551F661F771FEA95D1F744295529A8
:1004400066297729A9A1AF5FA9A3A03509F068C0E3
:10045000FC01EB5BFF4F4D845E846F847888C9801C
:10046000DA80EB80FC804C0C5D1C6E1C7F1C408293
:100470005182628273823496C988DA88EB88FC885C
:100480004D805E806F807884C40CD51CE61CF71C00
:10049000C082D182E282F3823496CD88DE88EF88F2
:1004A000F88C4C0D5D1D6E1D7F1D40835183628352
:1004B00073833496498D5A8D6B8D7C8D400F511FFF
:1004C000621F731F408351836283738334962D8D23
:1004D0003E8D4F8D58A1820E931EA41EB51E8082A4
:1004E0009182A282B3828C5B9F4FDC011C92A99601
:1004F0000FB6F894DEBF0FBECDBFDF91CF911F9135
:100500000F91FF90EF90DF90CF90BF90AF909F90B2
:100510008F907F906F905F904F903F902F900895B5
:10052000E9A1EF70F0E0EE0FFF1FEE0FFF1FDC01FF
:10053000AE0FBF1FBA87A9871496CD90DD90ED90BE
:10054000FC901797B9A1B03108F443C0F101359779
:10055000EF70FF273196EE0FFF1FEE0FFF1FE80F22
:10056000F91FD101AF70BB271196AA0FBB1FAA0FAD
:10057000BB1FA80FB91F4D905D906D907C90C42457
:10058000D524E624F7244080518062807380C424FF
:10059000D524E624F724F1013B97EF70FF2731962D
:1005A000EE0FFF1FEE0FFF1FE80FF91F4080518075
:1005B00062807380C424D524E624F724CC0CDD1C8F
:1005C000EE1CFF1CC11CE985FA85C482D582E68237
:1005D000F782FFEF2F1A3F0A89869A86AB86BC8680
:1005E000CD80DE80EF80F88449805A806B807C80EB
:1005F0004D825E826F827886480159018A019B0193
:10060000ABCE59A1583298F4B501A4014027512727
:10061000622773272A013B014C245D246E247F242A
:10062000B301A2014F55544166427149AFCE59A161
:100630005C33D8F4B901A8014C295D296E297F29C2
:10064000482159216A217B21280139014C205D2054
:100650006E207F20442A552A662A772AB301A201F8
:1006600044525344644E704791CEB501A4014027D3
:100670005127622773272A013B014C245D246E24F5
:100680007F24B301A2014A525E436D4975437ECE79
:10069000262FFC01E75AFF4F40815181628173810F
:1006A0004F5F5F4F6F4F7F4F4083518362837383F0
:1006B000622FDEDD81E090E00895DC01E0E034E1CE
:1006C0003E0F9C919A33B0F0975511962C9111974B
:1006D0002A3390F0275581E08E0FE60FF72FF11D9A
:1006E0009295907F922B90831296831301C0089568
:1006F000E82FE7CF9053E9CF2053EDCF90E0FC01F6
:10070000EC5DFF4F3491FC01E65BFF4F2491FC014F
:10071000EC5BFF4FE491EE23B9F0332329F0313045
:10072000A1F48AB58F778ABDF0E0EE0FFF1FE25C7F
:10073000FF4FA591B4918FB7611118C0F894EC9157
:1007400020952E232C938FBF0895323019F48AB54B
:100750008F7DE9CF333021F480B78F7D80BFE4CF28
:10076000343011F78CB58F7D8CBDDECFF894EC91D1
:100770002E2BE8CFCF93DF9390E0FC01E65BFF4F99
:1007800024918C5B9F4FFC0184918823D1F090E0F1
:10079000880F991FFC01E25EFF4FA591B491FC0107
:1007A000E25CFF4FC591D49161110EC09FB7F894E0
:1007B0008C91E22FE0958E238C932881E223E883AD
:1007C0009FBFDF91CF9108958FB7F894EC91E22B02
:1007D000EC938FBFF6CF8F929F92AF92BF92CF9242
:1007E000DF92EF92FF920F931F93CF93DF93CDB7DA
:1007F000DEB7A1970FB6F894DEBF0FBECDBF6C0178
:10080000142FE52FCB01022F19A2223008F40AE0A1
:100810007E0121E2E20EF11C802E912CB12CA12C44
:10082000612F7E2FA50194016AD3802F622F3AD3C6
:10083000181B1A307CF5105DD7011E937D01122F15
:10084000E32FCA01232B242B252B51F7FD01019007
:100850000020E9F73197AF014A1B5B0BD601ED9100
:10086000FC910280F381E02DB701C6010995A196A4
:100870000FB6F894DEBF0FBECDBFDF91CF911F91B1
:100880000F91FF90EF90DF90CF90BF90AF909F902F
:100890008F900895195CD0CF1F920F920FB60F92D0
:1008A00011242F933F934F935F936F937F938F9375
:1008B0009F93AF93BF93EF93FF93E0919000F091DC
:1008C0009100309749F0A685B7858585968D91FF73
:1008D00014C09C918923A1F4FF91EF91BF91AF9136
:1008E0009F918F917F916F915F914F913F912F9148
:1008F0000F900FBE0F901F9018959C91892361F760
:10090000A389B4899C918589809589238C93868954
:1009100097890197F1F7608D718DA685B78555850B
:1009200038E020E0CB010197F1F7822F90E0959518
:100930008795282F4C91452309F02068315091F775
:10094000868D81FD209580918F0090E001968370C7
:10095000992730918E00381799F0A0918F00B0E060
:10096000A657BF4F2C9380938F00828D938D019754
:10097000F1F7A389B4898C919589892B8C93ACCF9D
:10098000868D8160868FF1CF1092AC011092AB0101
:1009900088EE93E0A0E0B0E08093AD019093AE01CB
:1009A000A093AF01B093B00184E690E09093AA01C8
:1009B0008093A9011092C0011092BF011092C20150
:1009C0001092C1011092C4011092C3011092C6018D
:1009D0001092C5016091C7016E7F6D7F6093C70162
:1009E0006695617081E0682784E088DE61E084E0DC
:1009F000C1DE80E18093B90188E390E09093BB0170
:100A00008093BA0160E083E0B5DE8091C70181FD8B
:100A100003C061E083E072DE83E08093B50188E08B
:100A20008093B60186E390E09093B8018093B7017C
:100A30001092FB001092FA0084E790E09093F90086
:100A40008093F800089583E08ABD83BF789480E4A2
:100A50008CBD8FEF8DBD87EC80BF86E886B960E0E6
:100A600083E088DE61E084E085DE61E080E082DEB4
:100A70001092C4011092C3011092C2011092C101E0
:100A80001092C0011092BF018DEC90E09093C601CE
:100A90008093C5013091B501363020F545E550E031
:100AA0005093C0014093BF014BEC50E05093C20102
:100AB0004093C10140E950E05093C4014093C30109
:100AC0002BB720622BBF45E350E05093BD0140930C
:100AD000BC0121E001C0220F3A95EAF72093BE0144
:100AE0000197F1F78091C3019091C401892B49F1DD
:100AF000E0919000F091910081E0E93AF80709F166
:100B0000309739F0A389B4899C9185898095892390
:100B10008C938091C7018E7F8093C70110928F00C4
:100B200010928E0089EA91E090939100809390005A
:100B3000E091BC01F091BD0180819091BE01892BB3
:100B40008083C6EAD0E0FF24F3947EE5E72E0DEB28
:100B500010E089EA91E055DB181619060CF06BC01D
:100B600089EA91E064DBD82EEAE08E1320C010926F
:100B7000F200F092F700109293001092BC001092D5
:100B8000E5001092F00082E990E05CD1C82E86EE7C
:100B900090E058D164E670E08ED101969093F40015
:100BA0008093F300F4E0CF16E9F01092F700809103
:100BB000F200882369F08091F100E82FF0E0EE5612
:100BC000FF4FD0828F5F8F3509F413C18093F100FE
:100BD000FEE3DF1230C0109292001092F100F0920A
:100BE000F20029C064E970E0CB0167DD68EA70E0DB
:100BF0008DEB90E062DDA2E9B0E0CD011296EC91C0
:100C00001297F0E064E0F595E7956A95E1F7E8580A
:100C1000FF4F2081FC0123A71296EC911297EF70F1
:100C2000F0E0E858FF4F2081FC0124A711960296BE
:100C3000CA17DB0719F78091F700882309F489CFD9
:100C400061E080E05BDD1092F6001092F5002091EB
:100C5000F5003091F6008091F3009091F400281790
:100C6000390708F0C0C044E150E06AE270E08DE36B
:100C700091E005D11092510110925201109253014E
:100C80001092540110923C01F80101900020E9F704
:100C9000AF014E5B50406DEB70E088EF90E000DA02
:100CA0004091F5005091F60070E060E02AE088EF96
:100CB00090E091DD60E888EF90E0DADA80913C0125
:100CC00060E08833C1F788EF90E0D2DA60E088EF27
:100CD00090E0CEDA60E088EF90E0CADA60915101EE
:100CE0007091520180915301909154012DE196959C
:100CF0008795779567952A95D1F788EF90E0B8DAD0
:100D00006091510170915201809153019091540171
:100D100035E196958795779567953A95D1F788EF60
:100D200090E0A6DA609151017091520180915301D7
:100D3000909154014DE096958795779567954A95E2
:100D4000D1F788EF90E094DA6091510170915201EF
:100D5000809153019091540155E096958795779530
:100D600067955A95D1F788EF90E082DA609151014A
:100D7000660F660F660F88EF90E07ADAEDE3F1E038
:100D80006191719181919191DCD0DF0114976D9304
:100D90007D938D939C93139781E0E135F80781F75C
:100DA00044E150E068EA70E08DE391E0EBD0892BFC
:100DB00019F58CE322DA2AE044E050E060E070E0CC
:100DC00089EA91E008DD8CE218DA4091F500509153
:100DD000F60070E060E02AE089EA91E0FCDC8DE05A
:100DE0000CDA8AE00ADA60E080E088DC1092F70032
:100DF000B0CEE092F100ECCE8091F5009091F6003B
:100E000001969093F6008093F50021CF84E690E060
:100E10009093AA018093A9018091900090919100F4
:100E2000895A914071F4E091BC01F091BD0190812B
:100E30008091BE0180958923808310929100109249
:100E400090000895FC0188279927E8942191203289
:100E5000E9F3293010F02E30C8F32B3239F02D325F
:100E600031F4689403C014D0820F911D2191205356
:100E70002A30C8F31EF4909581959F4F0895FB0189
:100E8000DC0102C005900D9241505040D8F7089502
:100E9000BC01880F991F880F991F860F971F880F15
:100EA000991F0895002480FD060E660F11F08695A7
:100EB000D1F7802D08950024552704C0080E591F2E
:100EC000880F991F009729F076956795B8F37105FB
:100ED000B9F7802D952F089597FB072E16F40094EF
:100EE00006D077FD08D034D007FC05D03EF49095AD
:100EF00081959F4F0895709561957F4F0895A1E268
:100F00001A2EAA1BBB1BFD010DC0AA1FBB1FEE1F83
:100F1000FF1FA217B307E407F50720F0A21BB30BCE
:100F2000E40BF50B661F771F881F991F1A9469F74A
:100F300060957095809590959B01AC01BD01CF01A6
:100F4000089569279627692778278727782708959E
:100F5000AA1BBB1B51E107C0AA1FBB1FA617B707DF
:100F600010F0A61BB70B881F991F5A95A9F78095FB
:100F70009095BC01CD010895EE0FFF1F0590F491EF
:100F8000E02D0994FB01DC0104C08D9101908019D2
:100F900021F441505040C8F7881B990B089510E088
:100FA000C9E2D0E003C0FE01E7DF2196CA32D107D3
:060FB000D1F7F894FFCF19
:100FB60000000000A1005000010117017800920016
:100FC60000000000480350003031323334353637E4
:0A0FD600383961626364656600004B
:00000001FF
