:100000000C946D000C9495000C9495000C94D805FC
:100010000C94D8050C94D8050C9495000C9495007C
:100020000C9495000C9495000C9495000C949500FC
:100030000C9495000C9495000C9450060C9495002B
:100040000C948E050C9495000C9495000C949500DE
:100050000C9495000C9495000C9495000C949500CC
:100060000C9495000C9495000000000024002700DB
:100070002A0000000008000201000003040700003D
:100080000000000000000123456789ABCDEFFEDCD6
:10009000BA9876543210F0E1D2C300000000230079
:1000A0002600290000000000250028002B00040481
:1000B0000404040404040202020202020303030310
:1000C00003030102040810204080010204081020EC
:1000D00001020408102067060E0B11241FBECFEF8B
:1000E000D8E0DEBFCDBF22E0A6E5B1E001C01D92A1
:1000F000AA3AB207E1F711E0A0E0B1E0EEE8FCE1D6
:1001000002C005900D92A635B107D9F710E0CCE6F4
:10011000D0E004C02197FE010E94390CCB36D107F4
:10012000C9F70E94E2070C943A0E0C94000008955F
:10013000AF92BF92CF92DF92EF92FF920F931F93F5
:10014000CF93DF936C017B018B01040F151FEB0133
:100150005E01AE18BF08C017D10759F06991D601EA
:10016000ED91FC910190F081E02DC6010995892B5C
:1001700079F7C501DF91CF911F910F91FF90EF901B
:10018000DF90CF90BF90AF90089590E0FC01EE58C3
:10019000FF4F2491FC01EE53FF4F3491FC01E255D7
:1001A000FF4FE491EE23C9F0222339F0233001F10F
:1001B000A8F4213019F1223029F1F0E0EE0FFF1FF1
:1001C000EC55FF4FA591B4918FB7F894EC91611164
:1001D00026C030953E233C938FBF08952730A9F069
:1001E0002830C9F0243049F7809180008F7D03C00A
:1001F000809180008F7780938000DFCF84B58F77E8
:1002000084BDDBCF84B58F7DFBCF8091B0008F772D
:100210008093B000D2CF8091B0008F7DF9CF3E2B7C
:10022000DACFCF93DF9390E0FC01EE53FF4F2491A0
:1002300082559F4FFC0184918823D1F090E0880F74
:10024000991FFC01E859FF4FA591B491FC01EC55B1
:10025000FF4FC591D49161110EC09FB7F8948C9156
:10026000E22FE0958E238C932881E223E8839FBFC1
:10027000DF91CF9108958FB7F894EC91E22BEC9336
:100280008FBFF6CF20919801309199012817390737
:1002900071F49091960180919701981741F0E09147
:1002A0009601F0E0EA5AFE4F808190E008958FEFCA
:1002B0009FEF08950895EF92FF920F931F93CF93AE
:1002C000DF93DC015C96ED90FC905D97E114F10406
:1002D00079F481E090E013969C938E93129790E0CE
:1002E00080E0DF91CF911F910F91FF90EF900895E3
:1002F0005196ED91FC91529750968C915097982F72
:1003000090950FB75E962C915E97122F127021FD7B
:100310006095F8942081112319F1282B2083E7019F
:100320002197F1F728E0462F50E0308160FF1AC096
:10033000382B3083E7012197F1F7BA01759567955E
:10034000215089F7112381F08081892380830FBF99
:100350005C968D919C910197F1F781E090E0C1CF7F
:100360002923DCCF3923E5CF9081892BEFCF209152
:100370009801309199012817390771F480919701FC
:100380002091960190E0805C9F4F821B910960E470
:1003900070E00E940A0C089590E080E0089520919A
:1003A00098013091990128173907B9F49091960175
:1003B00080919701981789F0E0919601F0E0EA5A50
:1003C000FE4F80812091960130E02F5F3F4F2F73C9
:1003D00033272093960190E008958FEF9FEF0895C3
:1003E0002FB7F8948091A9019091AA01A091AB0137
:1003F000B091AC012FBF80937F0290938002A093B5
:100400008102B093820287E792E00E94CF0197FFBA
:1004100026C02FB7F8948091A9019091AA01A091CC
:10042000AB01B091AC012FBF40917F02509180028F
:100430006091810270918202841B950BA60BB70B11
:1004400040917B0250917C0260917D0270917E020E
:1004500084179507A607B707B0F28FEF9FEF0895AF
:100460002F923F924F925F926F927F928F929F92C4
:10047000AF92BF92CF92DF92EF92FF920F931F93B2
:10048000CF93DF93CDB7DEB7A9970FB6F894DEBF51
:100490000FBECDBFDC01AC5BBF4F2C91E3E0E22788
:1004A000E80FF92FF11D64832F5F2C93203409F09E
:1004B00016C1FC01EB5BFF4F40805180628073806E
:1004C0004D865E866F86788A3496608071808280E1
:1004D0009380698A7A8A8B8A9C8A349680809180FC
:1004E000A280B3808D8A9E8AAF8AB88E3496A0800F
:1004F000B180C280D380A98EBA8ECB8EDC8E34962A
:10050000C080D180E280F380CD8EDE8EEF8EF8A2A7
:10051000C986DA86EB86FC862D853E854F8558890F
:100520002D833E834F835887C988DA88EB88FC88FF
:10053000898C9A8CAB8CBC8C0D891E892F89388D47
:10054000BEE02B2E312C19A249A1443108F051C133
:10055000B501A40140275127622773274C215D2153
:100560006E217F212A013B01482459246A247B24DF
:10057000B301A201475656486D47754A4EA35FA383
:1005800068A779A7E9A1EF70F0E03196EE0FFF1FA1
:10059000EE0FFF1FE80FF91F4D805E806F8078849B
:1005A0005BE176946794579447945A95D1F74D81BF
:1005B0005E816F817885A5E0440F551F661F771F08
:1005C000AA95D1F744295529662977294080518079
:1005D00062807380440D551D661D771D2A013B0105
:1005E0004EA15FA168A579A5440E551E661E771E13
:1005F00049855A856B857C85440D551D661D771D83
:1006000049835A836B837C8326013701B2E0769459
:10061000679457944794BA95D1F7B701A601EEE1D4
:10062000440F551F661F771FEA95D1F744295529B6
:1006300066297729A9A1AF5FA9A3A03509F068C0F1
:10064000FC01EB5BFF4F4D845E846F847888C9802A
:10065000DA80EB80FC804C0C5D1C6E1C7F1C4082A1
:100660005182628273823496C988DA88EB88FC886A
:100670004D805E806F807884C40CD51CE61CF71C0E
:10068000C082D182E282F3823496CD88DE88EF8800
:10069000F88C4C0D5D1D6E1D7F1D40835183628360
:1006A00073833496498D5A8D6B8D7C8D400F511F0D
:1006B000621F731F408351836283738334962D8D31
:1006C0003E8D4F8D58A1820E931EA41EB51E8082B2
:1006D0009182A282B3828C5B9F4FDC011C92A9960F
:1006E0000FB6F894DEBF0FBECDBFDF91CF911F9143
:1006F0000F91FF90EF90DF90CF90BF90AF909F90C1
:100700008F907F906F905F904F903F902F900895C3
:10071000E9A1EF70A4E0EA9FF00111242C014E0E34
:100720005F1E5A864986D2011496CD90DD90ED90D9
:10073000FC901797B9A1B03108F443C0F101359787
:10074000EF70FF273196EE0FFF1FEE0FFF1FE80F30
:10075000F91FD101AF70BB271196AA0FBB1FAA0FBB
:10076000BB1FA80FB91F4D905D906D907C90C42465
:10077000D524E624F7244080518062807380C4240D
:10078000D524E624F724F1013B97EF70FF2731963B
:10079000EE0FFF1FEE0FFF1FE80FF91F4080518083
:1007A00062807380C424D524E624F724CC0CDD1C9D
:1007B000EE1CFF1CC11CE985FA85C482D582E68245
:1007C000F782FFEF2F1A3F0A89869A86AB86BC868E
:1007D000CD80DE80EF80F88449805A806B807C80F9
:1007E0004D825E826F827886480159018A019B01A1
:1007F000ABCE59A1583298F4B501A4014027512736
:10080000622773272A013B014C245D246E247F2438
:10081000B301A2014F55544166427149AFCE59A16F
:100820005C33D8F4B901A8014C295D296E297F29D0
:10083000482159216A217B21280139014C205D2062
:100840006E207F20442A552A662A772AB301A20106
:1008500044525344644E704791CEB501A4014027E1
:100860005127622773272A013B014C245D246E2403
:100870007F24B301A2014A525E436D4975437ECE87
:10088000262FFC01E75AFF4F40815181628173811D
:100890004F5F5F4F6F4F7F4F4083518362837383FE
:1008A000622F0E94300281E090E0089590E080E0A5
:1008B00008958091A0019091A1018E599F4F609160
:1008C000C501680F792F711D6C5D7E4FFB01019092
:1008D0000020E9F73197AF01461B570B87E792E0FD
:1008E0000E94980060919A0170919B0181E06827B5
:1008F00070939B0160939A018DE00C94C5000F9357
:100900001F93CF93DF938C01EB01FC0180819181D8
:100910000097E1F06881798161157105A9F0428144
:1009200053812C813D814217530770F00E94330E92
:100930008C819D81F801958384831D821C82DF91C7
:10094000CF911F910F9108950E94DB0C88819981AE
:10095000F801918380838A819B81938382838C8138
:100960009D8195838483198218821B821A82E5CF28
:10097000CF93DF93EC0188819981009711F00E9459
:10098000DB0C198218821D821C821B821A82DF9165
:10099000CF910895FC0180819181009711F00C9412
:1009A000DB0C08950F931F93CF93DF93EC018881A5
:1009B0009981009759F02A813B812617370730F03B
:1009C00081E0DF91CF911F910F9108958B016F5FAF
:1009D0007F4F0E94640D009759F0998388831B8391
:1009E0000A832C813D81232B59F7FC011082E8CF2B
:1009F00080E0E7CFEF92FF920F931F93CF93DF93A7
:100A000000D0CDB7DEB78C0169831A82FC01E48087
:100A1000F580FFEFEF1AFF0AB7010E94D204882386
:100A200081F0F8012081318184819581BE016F5F61
:100A30007F4F820F931F0E94330EF801F582E482EC
:100A400081E00F900F90DF91CF911F910F91FF9058
:100A5000EF900895EF92FF920F931F93CF93DF9340
:100A6000EC017B018A01BA010E94D20481110BC002
:100A7000CE010E94B804CE01DF91CF911F910F915A
:100A8000FF90EF9008951D830C83B70188819981B1
:100A90000E94330EF0CFFC01118210821382128269
:100AA0001582148250E040E060E471E00C942A0565
:100AB0000F931F93CF93DF93EC01062F0E944B05FA
:100AC0000E94F001002E000C110B97FD0AC0801748
:100AD000910739F0682FCE010E94FA040E94F001BC
:100AE000F4CFCE01DF91CF911F910F910895CF9355
:100AF000DF93EC01FB018617970749F06081718154
:100B00006115710541F0448155810E942A05CE018D
:100B1000DF91CF9108950E94B804F9CF1F920F92F0
:100B20000FB60F9211242F933F938F939F93AF9300
:100B3000BF938091A9019091AA01A091AB01B091BE
:100B4000AC013091A80123E0230F2D3758F5019611
:100B5000A11DB11D2093A8018093A9019093AA0122
:100B6000A093AB01B093AC018091A4019091A50139
:100B7000A091A601B091A7010196A11DB11D80937E
:100B8000A4019093A501A093A601B093A701BF91E2
:100B9000AF919F918F913F912F910F900FBE0F902A
:100BA0001F90189526E8230F0296A11DB11DD2CFE4
:100BB0001F920F920FB60F9211242F933F934F93D2
:100BC0005F936F937F938F939F93AF93BF93EF93B5
:100BD000FF93E0919801F0919901309749F0A68533
:100BE000B7858585968D91FF14C09C918923A1F4CA
:100BF000FF91EF91BF91AF919F918F917F916F91F5
:100C00005F914F913F912F910F900FBE0F901F90CA
:100C100018959C91892361F7A389B4899C91858952
:100C2000809589238C93868997890197F1F7608D48
:100C3000718DA685B785558538E020E0CB010197F9
:100C4000F1F7822F90E095958795282F4C914523B9
:100C500009F02068315091F7868D81FD20958091B3
:100C6000970190E001968F7399273091960138177C
:100C700099F0A0919701B0E0AA5ABE4F2C938093AF
:100C80009701828D938D0197F1F7A389B4898C9197
:100C90009589892B8C93ACCF868D8160868FF1CF1F
:100CA0001F920F920FB60F9211248F939F938091F2
:100CB000A2019091A30101969093A3018093A201B8
:100CC0009F918F910F900FBE0F901F9018954F928C
:100CD0005F926F927F928F929F92AF92BF92CF92CC
:100CE000DF92EF92FF92CF93DF93CDB7DEB72897D5
:100CF0000FB6F894DEBF0FBECDBF88E291E02C01A5
:100D0000990F66087708A301920165EE75E58AE9F7
:100D100095E10E94FA0B4B015C018092A202909235
:100D2000A302A092A402B092A50265EB7BE382E14C
:100D30009FE10E94FA0B6B017C01C0929E02D0924F
:100D40009F02E092A002F092A10265E17DEC8BE5AA
:100D500097E00E94FA0B69837A838B839C8360936C
:100D60009A0270939B0280939C0290939D0260EC88
:100D70007CE188EA96E10E94FA0B6D837E838F8383
:100D8000988760939602709397028093980290934D
:100D9000990210927A021092790288EE93E0A0E014
:100DA000B0E080937B0290937C02A0937D02B0938D
:100DB0007E028AE091E0909378028093770210920D
:100DC0008E0210928D021092900210928F02109259
:100DD00092021092910210929402109293026091EA
:100DE00095026E7F6D7F609395026695617081E0DC
:100DF000682784E00E94C50061E084E00E94110140
:100E0000E6ECF0E0E491E0938702E2EBF0E0E491BD
:100E1000F0E0EE0FFF1FEC55FF4F859194919093FA
:100E200089028093880260E083E00E941101809132
:100E3000950281FD04C061E083E00E94C50083E06B
:100E400080938302E5ECF0E0E491E0938402E1EB2F
:100E5000F0E0E491F0E0EE0FFF1FE656FF4F8591C2
:100E6000949190938602809385021092C90110920A
:100E7000C8018CE191E09093C7018093C601A50160
:100E8000940144275527A9E6B0E90E94A90B450122
:100E9000AA24BB24860E971EA81EB91E8092A20209
:100EA0009092A302A092A402B092A502A70196017B
:100EB00044275527A0E5B6E40E94A90B6701EE245C
:100EC000FF24C60ED71EE81EF91EC0929E02D092C5
:100ED0009F02E092A002F092A1022D813E814F81FB
:100EE00058856DEC7DE081E090E00E94FA0BDC011A
:100EF000CB0189579942AD4EBF4F80939602909394
:100F00009702A0939802B093990289809A80AB804F
:100F1000BC8041E1880C991CAA1CBB1C4A95D1F7E6
:100F200029813A814B815C8182269326A426B526AD
:100F3000240135015DE076946794579447945A955F
:100F4000D1F784249524A624B7242401350165E033
:100F5000440C551C661C771C6A95D1F7482459240B
:100F60006A247B2440929A0250929B0260929C02D7
:100F700070929D02C826C40CC092C5018FEB91E00F
:100F80000E944B0589EB91E00E944B0583EB91E0B9
:100F90000E944B058DEA91E028960FB6F894DEBFCB
:100FA0000FBECDBFDF91CF91FF90EF90DF90CF903C
:100FB000BF90AF909F908F907F906F905F904F9079
:100FC0000C944B05CF93DF93CDB7DEB767970FB681
:100FD000F894DEBF0FBECDBF789484B5826084BD27
:100FE00084B5816084BD85B5826085BD85B581602D
:100FF00085BD80916E00816080936E0010928100AB
:101000008091810082608093810080918100816065
:101010008093810080918000816080938000809126
:10102000B10084608093B1008091B00081608093B2
:10103000B00080917A00846080937A0080917A0079
:10104000826080937A0080917A00816080937A0038
:1010500080917A00806880937A001092C10082E0CB
:1010600084BD89EF87BD80916E00826080936E00A1
:10107000789485B5826085BD85B5816085BD60E069
:1010800083E00E94110161E084E00E94110110924E
:101090009202109291021092900210928F0210927E
:1010A0008E0210928D028DE991E0909394028093CC
:1010B000930290918302963108F047C02DEB30E007
:1010C00030938E0220938D022BE931E03093900211
:1010D00020938F022CE231E0309392022093910210
:1010E0002091680084E0983048F031E09E3008F4A8
:1010F00030E081E001C0880F3A95EAF7822B8093B7
:1011000068002DE630E0983050F02BE630E09E305D
:1011100030F02CE630E0963110F030E020E03093F3
:101120008B0220938A02292F30E0983008F077C094
:1011300081E001C0880F9A95EAF780938C02809134
:101140009302909194020197F1F78091910290910E
:101150009202892B49F1E0919801F091990122E0E6
:10116000E737F20709F1309739F0A389B4899C91E8
:101170008589809589238C93809195028E7F8093B9
:101180009502109297011092960187E792E0909352
:10119000990180939801E0918A02F0918B028081FD
:1011A00090918C02892B80830E9459048E010F5FDD
:1011B0001F4F74E6772EEFE1EE2EE2E0FE2EF0E018
:1011C000CF2EF0E0DF2E87E792E00E94B7011816DD
:1011D00019060CF0D3C16CE2C8010E945805B80191
:1011E0008FEB91E00E947F04C8010E94CA048091A5
:1011F000C3019091C401892B51F061E471E08091A9
:10120000BF019091C0010E942A0E892BA9F06AE0CB
:10121000C8010E945805C8010E94CA04D4CF9E305C
:1012200040F42850310981E001C0880F2A95EAF77F
:1012300084CF2E503109F7CF6CE2C8010E945805C7
:1012400089819A81009709F491C10E943A0B5B0150
:1012500070939D0160939C01C8010E94CA04809113
:10126000C5018A151B0499F66CE2C8010E94580555
:10127000B80189EB91E00E947F04C8010E94CA0472
:101280006CE2C8010E945805B80183EB91E00E940E
:101290007F04C8010E94CA046AE0C8010E94580580
:1012A00089819A81009709F465C10E943A0B769E64
:1012B0009001779E300D1124C901019690939F01F2
:1012C00080939E01C8010E94CA0460919A017091A6
:1012D0009B0181E0682770939B0160939A018DE0E8
:1012E0000E94C5001092A3011092A2011092A101C8
:1012F0001092A0012091A0013091A10180919E0146
:1013000090919F012817390708F045C144E150E04A
:1013100066E870E08BE092E00E94610B10921F0281
:1013200010922002109221021092220210920A02C0
:101330008091A0019091A1011B8A1A8A1D8A1C8AA2
:101340001F8A1E8A4AE0B8010E947F0BF8010190B3
:101350000020E9F73197AF01401B510BB801CE01D6
:1013600042960E942A051A8219821C821B821E82C2
:101370001D8269EB71E0C8010E9477058A889B880D
:101380008114910409F40EC1AE88BF88A114B10480
:10139000B1F08D819E81A80EB91EB501C8010E94D1
:1013A000D204882309F4FEC029813A818D819E816F
:1013B000B401820F931F0E94330EBE82AD824D8115
:1013C0005E8169817A8186EC91E00E949800C80173
:1013D0000E94CA04CE0142960E94CA0460E886ECCC
:1013E00091E00E94300280910A0260E08833B9F7F0
:1013F00086EC91E00E94300260E086EC91E00E9471
:10140000300260E086EC91E00E94300260911F02A1
:101410007091200280912102909122022DE19695F7
:101420008795779567952A95D1F786EC91E00E948C
:10143000300260911F0270912002809121029091F0
:10144000220235E196958795779567953A95D1F77C
:1014500086EC91E00E94300260911F0270912002A0
:1014600080912102909122024DE096958795779583
:1014700067954A95D1F786EC91E00E943002609121
:101480001F0270912002809121029091220255E06A
:1014900096958795779567955A95D1F786EC91E063
:1014A0000E94300260911F02660F660F660F86EC85
:1014B00091E00E9430026BE0862E62E0962E54018D
:1014C000F50161917191819191915F010E941E0CD2
:1014D00034976083718382839383EA14FB0481F7DA
:1014E000C8010E944B05D401ED914D01F0E084E06C
:1014F000F595E7958A95E1F7EB5BFE4F6081C801B2
:101500000E94FA04F4013197E081EF70F0E0EB5BA8
:10151000FE4F6081C8010E94FA048A149B0419F7E7
:10152000B8018DEA91E00E947F04C8010E94CA04BC
:101530002091B1013091B2018091B7019091B80131
:1015400028173907B1F58091AD019091AE016091F6
:10155000B3017091B4010097B1F16115710531F5D6
:10156000232BF1F1DC018C9190E038C060E070E059
:10157000CB016DCE60E070E0CB0199CE8091A201ED
:101580009091A3018938934134F01092A3011092F5
:10159000A2010E945904C114D10409F414CE0E947E
:1015A000000011CEC8010E94B80409CF0E942A0E83
:1015B00015C08091A0019091A10101969093A10185
:1015C0008093A00197CE6115710551F0232B41F056
:1015D000FB01808190E0919581959109892B49F7D4
:1015E0000E94590410929F0110929E011092A10135
:1015F0001092A00150E040E060E471E08DEA91E0DB
:101600000E942A056DEA71E083EB91E00E94770564
:10161000BC0189EB91E00E947705BDCF8DEA91E096
:101620000E94CA0483EB91E00E94CA0489EB91E016
:101630000E94CA048FEB91E00E94CA048AE091E004
:10164000909378028093770280919801909199010C
:101650008757924071F4E0918A02F0918B02908159
:1016600080918C0280958923808310929901109239
:10167000980108951F93FC0199278827BC01E894DD
:1016800011911032E9F3193010F01E30C8F31B32FB
:1016900051F01D3249F4689406C00E946A0B610F34
:1016A000711D811D911D119110531A30B0F33EF43C
:1016B00090958095709561957F4F8F4F9F4F1F91AB
:1016C0000895FB01DC0102C005900D92415050408D
:1016D000D8F70895592F482F372F262F660F771FD9
:1016E000881F991F660F771F881F991F620F731F2E
:1016F000841F951F660F771F881F991F0895BB27AA
:10170000FB015527AA27880F991FAA1FA41710F0BD
:10171000A41B83955051B9F7A05DAA3308F0A95DC9
:10172000A193009779F7B111B1931192CB010C9469
:10173000990BDC01FC01672F71917723E1F7329758
:1017400004C07C916D9370836291AE17BF07C8F39C
:1017500008950E94EB0BA59F900DB49F900DA49F40
:10176000800D911D112408952F923F924F925F9208
:101770006F927F928F929F92AF92BF92CF92DF92A1
:10178000EF92FF920F931F93CF93DF93CDB7DEB706
:10179000CA1BDB0B0FB6F894DEBF0FBECDBF09949A
:1017A0002A88398848885F846E847D848C849B84F1
:1017B000AA84B984C884DF80EE80FD800C811B81FF
:1017C000AA81B981CE0FD11D0FB6F894DEBF0FBE2E
:1017D000CDBFED010895A29FB001B39FC001A39FAB
:1017E000700D811D1124911DB29F700D811D11245A
:1017F000911D0895DB018F939F930E94A90BBF91C8
:10180000AF91A29F800D911DA39F900DB29F900D4F
:101810001124089597FB072E16F4009407D077FD46
:1018200009D00E94250C07FC05D03EF490958195C7
:101830009F4F0895709561957F4F0895692796276A
:1018400069277827872778270895AA1BBB1B51E1B2
:1018500007C0AA1FBB1FA617B70710F0A61BB70B20
:10186000881F991F5A95A9F780959095BC01CD01C5
:101870000895EE0FFF1F0590F491E02D09940F934A
:101880001F93CF93DF938230910510F482E090E0B4
:10189000E091A802F091A90230E020E0B0E0A0E0E1
:1018A000309799F42115310509F44AC0281B390BEA
:1018B00024303105D8F58A819B816115710589F144
:1018C000FB0193838283FE0111C04081518102811B
:1018D000138148175907E0F04817590799F41097F2
:1018E00061F012960C93129713961C933296CF01C7
:1018F000DF91CF911F910F9108950093A80210934B
:10190000A902F4CF2115310551F04217530738F0E1
:10191000A901DB019A01BD01DF01F801C1CFEF018F
:10192000F9CF9093A9028093A802CDCFFE01E20FD8
:10193000F31F819391932250310939832883D7CFA4
:101940002091A6023091A702232B41F4209102019D
:10195000309103013093A7022093A6022091000149
:10196000309101012115310541F42DB73EB7409169
:10197000040150910501241B350BE091A602F09162
:10198000A702E217F307A0F42E1B3F0B2817390715
:1019900078F0AC014E5F5F4F2417350748F04E0FCB
:1019A0005F1F5093A7024093A602819391939FCF0C
:1019B000F0E0E0E09CCFCF93DF930097E9F0FC01EB
:1019C000329713821282A091A802B091A902ED0170
:1019D00030E020E01097A1F420813181820F931F25
:1019E0002091A6023091A7022817390709F061C09B
:1019F000F093A702E093A602DF91CF910895EA0148
:101A0000CE17DF07E8F54A815B819E01411551053C
:101A1000B1F7E901FB83EA8349915991C40FD51FBE
:101A2000EC17FD0761F4808191810296840F951F68
:101A3000E90199838883828193819B838A83F0E083
:101A4000E0E012968D919C9113970097B9F52D9136
:101A50003C911197CD010296820F931F2091A6020F
:101A60003091A7022817390739F6309751F51092AF
:101A7000A9021092A802B093A702A093A602BCCF1D
:101A8000D383C28340815181840F951FC817D90722
:101A900061F44E5F5F4F88819981480F591F5183D0
:101AA00040838A819B81938382832115310509F0CC
:101AB000B0CFF093A902E093A8029ECFFD01DC0114
:101AC000C0CF13821282D7CFB0E0A0E0EAE6FDE0FB
:101AD0000C94B60B8C01009751F4CB010E943F0C83
:101AE0008C01C801CDB7DEB7E0E10C94D20BFC014C
:101AF000E60FF71F9C0122503109E217F30708F4A3
:101B00009DC0D901CD91DC911197C617D70798F0E8
:101B1000C530D10530F3CE0104978617970708F337
:101B2000C61BD70B2297C193D1936D937C93CF01A2
:101B30000E94DB0CD6CF5B01AC1ABD0A4C018C0EA7
:101B40009D1EA091A802B091A902512C412CF12C0C
:101B5000E12C109731F58091A6029091A70288158B
:101B6000990509F05CC04616570608F058C08091E8
:101B7000000190910101009741F48DB79EB740910B
:101B8000040150910501841B950BE817F90708F033
:101B900055C0F093A702E093A602F9017183608318
:101BA000A0CF8D919C91119712966C9012971396DD
:101BB0007C901397A815B90559F56C0142E0C40E45
:101BC000D11CCA14DB0420F1AC014A195B09DA010B
:101BD0001296159780F06282738251834083D901F7
:101BE0006D937C93E114F10471F0D7011396FC938B
:101BF000EE93129776CF22968C0F9D1FF901918359
:101C00008083F301EFCFF093A902E093A80269CF9C
:101C10004816590608F42C017D01D3019ACFCB0157
:101C20000E943F0C7C01009749F0AE01B8010E9470
:101C3000210EC8010E94DB0C870153CF10E000E0A9
:101C400050CFFB01DC0102C001900D924150504089
:101C5000D8F70895FB01DC018D91019080190110E6
:101C6000D9F3990B0895FB01DC0101900D9200203E
:101C7000E1F7089510E0CCE6D0E004C0FE010E9438
:0E1C8000390C2196CD36D107C9F7F894FFCF65
:101C8E000000AA028000000000005B0198005604CC
:101C9E005A01B701CF014201000000004004980034
:101CAE00560497003C3C3C0053756E2041707220E8
:101CBE0031382031363A33343A34392032303231F9
:101CCE00003E3E3E003031323334353637383961DE
:061CDE006263646566000C
:107E0000112484B714BE81FFF0D085E080938100F7
:107E100082E08093C00088E18093C10086E0809377
:107E2000C20080E18093C4008EE0C9D0259A86E02C
:107E300020E33CEF91E0309385002093840096BBD3
:107E4000B09BFECF1D9AA8958150A9F7CC24DD24C4
:107E500088248394B5E0AB2EA1E19A2EF3E0BF2EE7
:107E6000A2D0813461F49FD0082FAFD0023811F036
:107E7000013811F484E001C083E08DD089C08234E0
:107E800011F484E103C0853419F485E0A6D080C0E4
:107E9000853579F488D0E82EFF2485D0082F10E0AE
:107EA000102F00270E291F29000F111F8ED06801E7
:107EB0006FC0863521F484E090D080E0DECF843638
:107EC00009F040C070D06FD0082F6DD080E0C81688
:107ED00080E7D80618F4F601B7BEE895C0E0D1E017
:107EE00062D089930C17E1F7F0E0CF16F0E7DF06D8
:107EF00018F0F601B7BEE89568D007B600FCFDCFD4
:107F0000A601A0E0B1E02C9130E011968C91119780
:107F100090E0982F8827822B932B1296FA010C0160
:107F200087BEE89511244E5F5F4FF1E0A038BF0790
:107F300051F7F601A7BEE89507B600FCFDCF97BE46
:107F4000E89526C08437B1F42ED02DD0F82E2BD052
:107F50003CD0F601EF2C8F010F5F1F4F84911BD097
:107F6000EA94F801C1F70894C11CD11CFA94CF0C13
:107F7000D11C0EC0853739F428D08EE10CD085E9AC
:107F80000AD08FE07ACF813511F488E018D01DD067
:107F900080E101D065CF982F8091C00085FFFCCF94
:107FA0009093C60008958091C00087FFFCCF809118
:107FB000C00084FD01C0A8958091C6000895E0E648
:107FC000F0E098E1908380830895EDDF803219F02E
:107FD00088E0F5DFFFCF84E1DECF1F93182FE3DFCA
:107FE0001150E9F7F2DF1F91089580E0E8DFEE27F6
:047FF000FF270994CA
:027FFE00040479
:0400000300007E007B
:00000001FF
